{
  "contractName": "Dex",
  "abi": [
    {
      "anonymous": false,
      "inputs": [
        {
          "indexed": true,
          "internalType": "address",
          "name": "previousOwner",
          "type": "address"
        },
        {
          "indexed": true,
          "internalType": "address",
          "name": "newOwner",
          "type": "address"
        }
      ],
      "name": "OwnershipTransferred",
      "type": "event"
    },
    {
      "inputs": [
        {
          "internalType": "bytes32",
          "name": "ticker",
          "type": "bytes32"
        },
        {
          "internalType": "address",
          "name": "tokenAddress",
          "type": "address"
        }
      ],
      "name": "addToken",
      "outputs": [],
      "stateMutability": "nonpayable",
      "type": "function"
    },
    {
      "inputs": [
        {
          "internalType": "address",
          "name": "",
          "type": "address"
        },
        {
          "internalType": "bytes32",
          "name": "",
          "type": "bytes32"
        }
      ],
      "name": "balances",
      "outputs": [
        {
          "internalType": "uint256",
          "name": "",
          "type": "uint256"
        }
      ],
      "stateMutability": "view",
      "type": "function"
    },
    {
      "inputs": [
        {
          "internalType": "uint256",
          "name": "amount",
          "type": "uint256"
        },
        {
          "internalType": "bytes32",
          "name": "ticker",
          "type": "bytes32"
        }
      ],
      "name": "deposit",
      "outputs": [],
      "stateMutability": "nonpayable",
      "type": "function"
    },
    {
      "inputs": [],
      "name": "depositETH",
      "outputs": [],
      "stateMutability": "payable",
      "type": "function"
    },
    {
      "inputs": [],
      "name": "nextOrderId",
      "outputs": [
        {
          "internalType": "uint256",
          "name": "",
          "type": "uint256"
        }
      ],
      "stateMutability": "view",
      "type": "function"
    },
    {
      "inputs": [],
      "name": "owner",
      "outputs": [
        {
          "internalType": "address",
          "name": "",
          "type": "address"
        }
      ],
      "stateMutability": "view",
      "type": "function"
    },
    {
      "inputs": [],
      "name": "renounceOwnership",
      "outputs": [],
      "stateMutability": "nonpayable",
      "type": "function"
    },
    {
      "inputs": [
        {
          "internalType": "uint256",
          "name": "",
          "type": "uint256"
        }
      ],
      "name": "tokenList",
      "outputs": [
        {
          "internalType": "bytes32",
          "name": "",
          "type": "bytes32"
        }
      ],
      "stateMutability": "view",
      "type": "function"
    },
    {
      "inputs": [
        {
          "internalType": "bytes32",
          "name": "",
          "type": "bytes32"
        }
      ],
      "name": "tokenMapping",
      "outputs": [
        {
          "internalType": "bytes32",
          "name": "ticker",
          "type": "bytes32"
        },
        {
          "internalType": "address",
          "name": "tokenAddress",
          "type": "address"
        }
      ],
      "stateMutability": "view",
      "type": "function"
    },
    {
      "inputs": [
        {
          "internalType": "address",
          "name": "newOwner",
          "type": "address"
        }
      ],
      "name": "transferOwnership",
      "outputs": [],
      "stateMutability": "nonpayable",
      "type": "function"
    },
    {
      "inputs": [
        {
          "internalType": "uint256",
          "name": "amount",
          "type": "uint256"
        },
        {
          "internalType": "bytes32",
          "name": "ticker",
          "type": "bytes32"
        }
      ],
      "name": "withdrawal",
      "outputs": [],
      "stateMutability": "nonpayable",
      "type": "function"
    },
    {
      "inputs": [
        {
          "internalType": "bytes32",
          "name": "ticker",
          "type": "bytes32"
        },
        {
          "internalType": "enum Dex.buyOrSell",
          "name": "buySell",
          "type": "uint8"
        }
      ],
      "name": "getOrderBook",
      "outputs": [
        {
          "components": [
            {
              "internalType": "uint256",
              "name": "id",
              "type": "uint256"
            },
            {
              "internalType": "address",
              "name": "trader",
              "type": "address"
            },
            {
              "internalType": "enum Dex.buyOrSell",
              "name": "buyOrSell",
              "type": "uint8"
            },
            {
              "internalType": "bytes32",
              "name": "ticker",
              "type": "bytes32"
            },
            {
              "internalType": "uint256",
              "name": "amount",
              "type": "uint256"
            },
            {
              "internalType": "uint256",
              "name": "price",
              "type": "uint256"
            },
            {
              "internalType": "uint256",
              "name": "filled",
              "type": "uint256"
            }
          ],
          "internalType": "struct Dex.Order[]",
          "name": "",
          "type": "tuple[]"
        }
      ],
      "stateMutability": "view",
      "type": "function"
    },
    {
      "inputs": [
        {
          "internalType": "enum Dex.buyOrSell",
          "name": "buySell",
          "type": "uint8"
        },
        {
          "internalType": "bytes32",
          "name": "ticker",
          "type": "bytes32"
        },
        {
          "internalType": "uint256",
          "name": "amount",
          "type": "uint256"
        },
        {
          "internalType": "uint256",
          "name": "price",
          "type": "uint256"
        }
      ],
      "name": "createLimitOrder",
      "outputs": [],
      "stateMutability": "nonpayable",
      "type": "function"
    },
    {
      "inputs": [
        {
          "internalType": "enum Dex.buyOrSell",
          "name": "buySell",
          "type": "uint8"
        },
        {
          "internalType": "bytes32",
          "name": "ticker",
          "type": "bytes32"
        },
        {
          "internalType": "uint256",
          "name": "amount",
          "type": "uint256"
        }
      ],
      "name": "createMarketOrder",
      "outputs": [],
      "stateMutability": "nonpayable",
      "type": "function"
    }
  ],
  "bytecode": "0x608060405260006005553480156200001657600080fd5b50620000376200002b6200003d60201b60201c565b6200004560201b60201c565b62000109565b600033905090565b60008060009054906101000a900473ffffffffffffffffffffffffffffffffffffffff169050816000806101000a81548173ffffffffffffffffffffffffffffffffffffffff021916908373ffffffffffffffffffffffffffffffffffffffff1602179055508173ffffffffffffffffffffffffffffffffffffffff168173ffffffffffffffffffffffffffffffffffffffff167f8be0079c531659141344cd1fd0a4f28419497f9722a3daafe3b4186f6b6457e060405160405180910390a35050565b61306280620001196000396000f3fe6080604052600436106100dd5760003560e01c80639776aacf1161007f578063ba58ea6811610059578063ba58ea68146102ab578063c9630cb0146102e8578063f2fde38b14610311578063f6326fb31461033a576100dd565b80639776aacf1461021c57806399ec2f1c146102455780639ead72221461026e576100dd565b8063667cb4ba116100bb578063667cb4ba146101735780636f3b62f9146101b1578063715018a6146101da5780638da5cb5b146101f1576100dd565b80631f14df69146100e25780632a58b3301461011f57806341fe8d101461014a575b600080fd5b3480156100ee57600080fd5b50610109600480360381019061010491906125ec565b610344565b6040516101169190612645565b60405180910390f35b34801561012b57600080fd5b50610134610369565b6040516101419190612645565b60405180910390f35b34801561015657600080fd5b50610171600480360381019061016c919061268c565b61036f565b005b34801561017f57600080fd5b5061019a600480360381019061019591906126cc565b61062b565b6040516101a8929190612717565b60405180910390f35b3480156101bd57600080fd5b506101d860048036038101906101d39190612765565b61066f565b005b3480156101e657600080fd5b506101ef610f80565b005b3480156101fd57600080fd5b50610206611008565b60405161021391906127cc565b60405180910390f35b34801561022857600080fd5b50610243600480360381019061023e91906127e7565b611031565b005b34801561025157600080fd5b5061026c60048036038101906102679190612827565b61116c565b005b34801561027a57600080fd5b506102956004803603810190610290919061287a565b611fab565b6040516102a291906128a7565b60405180910390f35b3480156102b757600080fd5b506102d260048036038101906102cd91906128c2565b611fcf565b6040516102df9190612ae3565b60405180910390f35b3480156102f457600080fd5b5061030f600480360381019061030a919061268c565b612128565b005b34801561031d57600080fd5b5061033860048036038101906103339190612b05565b6122f1565b005b6103426123e8565b005b6003602052816000526040600020602052806000526040600020600091509150505481565b60055481565b80600073ffffffffffffffffffffffffffffffffffffffff166001600083815260200190815260200160002060010160009054906101000a900473ffffffffffffffffffffffffffffffffffffffff1673ffffffffffffffffffffffffffffffffffffffff1603610415576040517f08c379a000000000000000000000000000000000000000000000000000000000815260040161040c90612b8f565b60405180910390fd5b82600360003373ffffffffffffffffffffffffffffffffffffffff1673ffffffffffffffffffffffffffffffffffffffff16815260200190815260200160002060008481526020019081526020016000205410156104a8576040517f08c379a000000000000000000000000000000000000000000000000000000000815260040161049f90612bfb565b60405180910390fd5b61050b83600360003373ffffffffffffffffffffffffffffffffffffffff1673ffffffffffffffffffffffffffffffffffffffff16815260200190815260200160002060008581526020019081526020016000205461247190919063ffffffff16565b600360003373ffffffffffffffffffffffffffffffffffffffff1673ffffffffffffffffffffffffffffffffffffffff1681526020019081526020016000206000848152602001908152602001600020600082825461056a9190612c4a565b925050819055506001600083815260200190815260200160002060010160009054906101000a900473ffffffffffffffffffffffffffffffffffffffff1673ffffffffffffffffffffffffffffffffffffffff1663a9059cbb33856040518363ffffffff1660e01b81526004016105e2929190612c7e565b6020604051808303816000875af1158015610601573d6000803e3d6000fd5b505050506040513d601f19601f820116820180604052508101906106259190612cdf565b50505050565b60016020528060005260406000206000915090508060000154908060010160009054906101000a900473ffffffffffffffffffffffffffffffffffffffff16905082565b600060018111156106835761068261294c565b5b8460018111156106965761069561294c565b5b036107285780826106a79190612d0c565b600360003373ffffffffffffffffffffffffffffffffffffffff1673ffffffffffffffffffffffffffffffffffffffff16815260200190815260200160002060007f4554480000000000000000000000000000000000000000000000000000000000815260200190815260200160002054101561072357600080fd5b6107b2565b60018081111561073b5761073a61294c565b5b84600181111561074e5761074d61294c565b5b036107b15781600360003373ffffffffffffffffffffffffffffffffffffffff1673ffffffffffffffffffffffffffffffffffffffff16815260200190815260200160002060008581526020019081526020016000205410156107b057600080fd5b5b5b60006004600085815260200190815260200160002060008660018111156107dc576107db61294c565b5b81526020019081526020016000209050806040518060e0016040528060055481526020013373ffffffffffffffffffffffffffffffffffffffff16815260200187600181111561082f5761082e61294c565b5b8152602001868152602001858152602001848152602001600081525090806001815401808255809150506001900390600052602060002090600602016000909190919091506000820151816000015560208201518160010160006101000a81548173ffffffffffffffffffffffffffffffffffffffff021916908373ffffffffffffffffffffffffffffffffffffffff16021790555060408201518160010160146101000a81548160ff021916908360018111156108f0576108ef61294c565b5b0217905550606082015181600201556080820151816003015560a0820151816004015560c082015181600501555050600081805490501115610f6157600060018111156109405761093f61294c565b5b8560018111156109535761095261294c565b5b03610c4a5760006001828054905061096b9190612c4a565b90505b6000811115610c4457816001826109859190612c4a565b8154811061099657610995612d66565b5b9060005260206000209060060201600401548282815481106109bb576109ba612d66565b5b9060005260206000209060060201600401541115610c2c5760008282815481106109e8576109e7612d66565b5b9060005260206000209060060201905082600183610a069190612c4a565b81548110610a1757610a16612d66565b5b9060005260206000209060060201838381548110610a3857610a37612d66565b5b9060005260206000209060060201600082015481600001556001820160009054906101000a900473ffffffffffffffffffffffffffffffffffffffff168160010160006101000a81548173ffffffffffffffffffffffffffffffffffffffff021916908373ffffffffffffffffffffffffffffffffffffffff1602179055506001820160149054906101000a900460ff168160010160146101000a81548160ff02191690836001811115610aef57610aee61294c565b5b0217905550600282015481600201556003820154816003015560048201548160040155600582015481600501559050508083600184610b2e9190612c4a565b81548110610b3f57610b3e612d66565b5b9060005260206000209060060201600082015481600001556001820160009054906101000a900473ffffffffffffffffffffffffffffffffffffffff168160010160006101000a81548173ffffffffffffffffffffffffffffffffffffffff021916908373ffffffffffffffffffffffffffffffffffffffff1602179055506001820160149054906101000a900460ff168160010160146101000a81548160ff02191690836001811115610bf657610bf561294c565b5b02179055506002820154816002015560038201548160030155600482015481600401556005820154816005015590505050610c31565b610c44565b8080610c3c90612d95565b91505061096e565b50610f60565b600180811115610c5d57610c5c61294c565b5b856001811115610c7057610c6f61294c565b5b03610f5f5760005b60018280549050610c899190612c4a565b811015610f5d5781600182610c9e9190612dbe565b81548110610caf57610cae612d66565b5b906000526020600020906006020160040154828281548110610cd457610cd3612d66565b5b9060005260206000209060060201600401541115610f45576000828281548110610d0157610d00612d66565b5b9060005260206000209060060201905082600183610d1f9190612dbe565b81548110610d3057610d2f612d66565b5b9060005260206000209060060201838381548110610d5157610d50612d66565b5b9060005260206000209060060201600082015481600001556001820160009054906101000a900473ffffffffffffffffffffffffffffffffffffffff168160010160006101000a81548173ffffffffffffffffffffffffffffffffffffffff021916908373ffffffffffffffffffffffffffffffffffffffff1602179055506001820160149054906101000a900460ff168160010160146101000a81548160ff02191690836001811115610e0857610e0761294c565b5b0217905550600282015481600201556003820154816003015560048201548160040155600582015481600501559050508083600184610e479190612dbe565b81548110610e5857610e57612d66565b5b9060005260206000209060060201600082015481600001556001820160009054906101000a900473ffffffffffffffffffffffffffffffffffffffff168160010160006101000a81548173ffffffffffffffffffffffffffffffffffffffff021916908373ffffffffffffffffffffffffffffffffffffffff1602179055506001820160149054906101000a900460ff168160010160146101000a81548160ff02191690836001811115610f0f57610f0e61294c565b5b02179055506002820154816002015560038201548160030155600482015481600401556005820154816005015590505050610f4a565b610f5d565b8080610f5590612e14565b915050610c78565b505b5b5b60056000815480929190610f7490612e14565b91905055505050505050565b610f88612487565b73ffffffffffffffffffffffffffffffffffffffff16610fa6611008565b73ffffffffffffffffffffffffffffffffffffffff1614610ffc576040517f08c379a0000000000000000000000000000000000000000000000000000000008152600401610ff390612ea8565b60405180910390fd5b611006600061248f565b565b60008060009054906101000a900473ffffffffffffffffffffffffffffffffffffffff16905090565b611039612487565b73ffffffffffffffffffffffffffffffffffffffff16611057611008565b73ffffffffffffffffffffffffffffffffffffffff16146110ad576040517f08c379a00000000000000000000000000000000000000000000000000000000081526004016110a490612ea8565b60405180910390fd5b60405180604001604052808381526020018273ffffffffffffffffffffffffffffffffffffffff16815250600160008481526020019081526020016000206000820151816000015560208201518160010160006101000a81548173ffffffffffffffffffffffffffffffffffffffff021916908373ffffffffffffffffffffffffffffffffffffffff16021790555090505060028290806001815401808255809150506001900390600052602060002001600090919091909150555050565b60018081111561117f5761117e61294c565b5b8360018111156111925761119161294c565b5b0361122b5780600360003373ffffffffffffffffffffffffffffffffffffffff1673ffffffffffffffffffffffffffffffffffffffff168152602001908152602001600020600084815260200190815260200160002054101561122a576040517f08c379a000000000000000000000000000000000000000000000000000000000815260040161122190612f14565b60405180910390fd5b5b60008060018111156112405761123f61294c565b5b8460018111156112535761125261294c565b5b036112615760019050611266565b600090505b60006004600085815260200190815260200160002060008381526020019081526020016000209050600080600090505b8280549050811080156112a857508482105b15611d5757600082866112bb9190612c4a565b905060008483815481106112d2576112d1612d66565b5b9060005260206000209060060201600501548584815481106112f7576112f6612d66565b5b9060005260206000209060060201600301546113139190612c4a565b90506000828211156113275782905061132b565b8190505b80856113379190612dbe565b94508086858154811061134d5761134c612d66565b5b9060005260206000209060060201600501546113699190612dbe565b86858154811061137c5761137b612d66565b5b90600052602060002090600602016005018190555060008685815481106113a6576113a5612d66565b5b906000526020600020906006020160040154826113c39190612d0c565b9050600060018111156113d9576113d861294c565b5b8b60018111156113ec576113eb61294c565b5b036118c35780600360003373ffffffffffffffffffffffffffffffffffffffff1673ffffffffffffffffffffffffffffffffffffffff16815260200190815260200160002060007f4554480000000000000000000000000000000000000000000000000000000000815260200190815260200160002054101561146e57600080fd5b81600360003373ffffffffffffffffffffffffffffffffffffffff1673ffffffffffffffffffffffffffffffffffffffff16815260200190815260200160002060008c8152602001908152602001600020546114ca9190612c4a565b600360003373ffffffffffffffffffffffffffffffffffffffff1673ffffffffffffffffffffffffffffffffffffffff16815260200190815260200160002060008c81526020019081526020016000208190555080600360003373ffffffffffffffffffffffffffffffffffffffff1673ffffffffffffffffffffffffffffffffffffffff16815260200190815260200160002060007f455448000000000000000000000000000000000000000000000000000000000081526020019081526020016000205461159a9190612dbe565b600360003373ffffffffffffffffffffffffffffffffffffffff1673ffffffffffffffffffffffffffffffffffffffff16815260200190815260200160002060007f4554480000000000000000000000000000000000000000000000000000000000815260200190815260200160002081905550816003600089888154811061162657611625612d66565b5b906000526020600020906006020160010160009054906101000a900473ffffffffffffffffffffffffffffffffffffffff1673ffffffffffffffffffffffffffffffffffffffff1673ffffffffffffffffffffffffffffffffffffffff16815260200190815260200160002060008c8152602001908152602001600020546116ae9190612c4a565b600360008988815481106116c5576116c4612d66565b5b906000526020600020906006020160010160009054906101000a900473ffffffffffffffffffffffffffffffffffffffff1673ffffffffffffffffffffffffffffffffffffffff1673ffffffffffffffffffffffffffffffffffffffff16815260200190815260200160002060008c815260200190815260200160002081905550806003600089888154811061175e5761175d612d66565b5b906000526020600020906006020160010160009054906101000a900473ffffffffffffffffffffffffffffffffffffffff1673ffffffffffffffffffffffffffffffffffffffff1673ffffffffffffffffffffffffffffffffffffffff16815260200190815260200160002060007f45544800000000000000000000000000000000000000000000000000000000008152602001908152602001600020546118069190612dbe565b6003600089888154811061181d5761181c612d66565b5b906000526020600020906006020160010160009054906101000a900473ffffffffffffffffffffffffffffffffffffffff1673ffffffffffffffffffffffffffffffffffffffff1673ffffffffffffffffffffffffffffffffffffffff16815260200190815260200160002060007f4554480000000000000000000000000000000000000000000000000000000000815260200190815260200160002081905550611d40565b6001808111156118d6576118d561294c565b5b8b60018111156118e9576118e861294c565b5b03611d3f5781600360003373ffffffffffffffffffffffffffffffffffffffff1673ffffffffffffffffffffffffffffffffffffffff16815260200190815260200160002060008c81526020019081526020016000205461194a9190612dbe565b600360003373ffffffffffffffffffffffffffffffffffffffff1673ffffffffffffffffffffffffffffffffffffffff16815260200190815260200160002060008c81526020019081526020016000208190555080600360003373ffffffffffffffffffffffffffffffffffffffff1673ffffffffffffffffffffffffffffffffffffffff16815260200190815260200160002060007f4554480000000000000000000000000000000000000000000000000000000000815260200190815260200160002054611a1a9190612c4a565b600360003373ffffffffffffffffffffffffffffffffffffffff1673ffffffffffffffffffffffffffffffffffffffff16815260200190815260200160002060007f45544800000000000000000000000000000000000000000000000000000000008152602001908152602001600020819055508160036000898881548110611aa657611aa5612d66565b5b906000526020600020906006020160010160009054906101000a900473ffffffffffffffffffffffffffffffffffffffff1673ffffffffffffffffffffffffffffffffffffffff1673ffffffffffffffffffffffffffffffffffffffff16815260200190815260200160002060008c815260200190815260200160002054611b2e9190612c4a565b60036000898881548110611b4557611b44612d66565b5b906000526020600020906006020160010160009054906101000a900473ffffffffffffffffffffffffffffffffffffffff1673ffffffffffffffffffffffffffffffffffffffff1673ffffffffffffffffffffffffffffffffffffffff16815260200190815260200160002060008c8152602001908152602001600020819055508060036000898881548110611bde57611bdd612d66565b5b906000526020600020906006020160010160009054906101000a900473ffffffffffffffffffffffffffffffffffffffff1673ffffffffffffffffffffffffffffffffffffffff1673ffffffffffffffffffffffffffffffffffffffff16815260200190815260200160002060007f4554480000000000000000000000000000000000000000000000000000000000815260200190815260200160002054611c869190612dbe565b60036000898881548110611c9d57611c9c612d66565b5b906000526020600020906006020160010160009054906101000a900473ffffffffffffffffffffffffffffffffffffffff1673ffffffffffffffffffffffffffffffffffffffff1673ffffffffffffffffffffffffffffffffffffffff16815260200190815260200160002060007f45544800000000000000000000000000000000000000000000000000000000008152602001908152602001600020819055505b5b505050508080611d4f90612e14565b915050611296565b505b60008280549050118015611db6575081600081548110611d7c57611d7b612d66565b5b90600052602060002090600602016003015482600081548110611da257611da1612d66565b5b906000526020600020906006020160050154145b15611fa35760005b60018380549050611dcf9190612c4a565b811015611f105782600182611de49190612dbe565b81548110611df557611df4612d66565b5b9060005260206000209060060201838281548110611e1657611e15612d66565b5b9060005260206000209060060201600082015481600001556001820160009054906101000a900473ffffffffffffffffffffffffffffffffffffffff168160010160006101000a81548173ffffffffffffffffffffffffffffffffffffffff021916908373ffffffffffffffffffffffffffffffffffffffff1602179055506001820160149054906101000a900460ff168160010160146101000a81548160ff02191690836001811115611ecd57611ecc61294c565b5b0217905550600282015481600201556003820154816003015560048201548160040155600582015481600501559050508080611f0890612e14565b915050611dbe565b5081805480611f2257611f21612f34565b5b60019003818190600052602060002090600602016000808201600090556001820160006101000a81549073ffffffffffffffffffffffffffffffffffffffff02191690556001820160146101000a81549060ff0219169055600282016000905560038201600090556004820160009055600582016000905550509055611d59565b505050505050565b60028181548110611fbb57600080fd5b906000526020600020016000915090505481565b6060600460008481526020019081526020016000206000836001811115611ff957611ff861294c565b5b8152602001908152602001600020805480602002602001604051908101604052809291908181526020016000905b8282101561211c57838290600052602060002090600602016040518060e0016040529081600082015481526020016001820160009054906101000a900473ffffffffffffffffffffffffffffffffffffffff1673ffffffffffffffffffffffffffffffffffffffff1673ffffffffffffffffffffffffffffffffffffffff1681526020016001820160149054906101000a900460ff1660018111156120cf576120ce61294c565b5b60018111156120e1576120e061294c565b5b815260200160028201548152602001600382015481526020016004820154815260200160058201548152505081526020019060010190612027565b50505050905092915050565b80600073ffffffffffffffffffffffffffffffffffffffff166001600083815260200190815260200160002060010160009054906101000a900473ffffffffffffffffffffffffffffffffffffffff1673ffffffffffffffffffffffffffffffffffffffff16036121ce576040517f08c379a00000000000000000000000000000000000000000000000000000000081526004016121c590612b8f565b60405180910390fd5b82600360003373ffffffffffffffffffffffffffffffffffffffff1673ffffffffffffffffffffffffffffffffffffffff1681526020019081526020016000206000848152602001908152602001600020600082825461222e9190612dbe565b925050819055506001600083815260200190815260200160002060010160009054906101000a900473ffffffffffffffffffffffffffffffffffffffff1673ffffffffffffffffffffffffffffffffffffffff166323b872dd3330866040518463ffffffff1660e01b81526004016122a893929190612f63565b6020604051808303816000875af11580156122c7573d6000803e3d6000fd5b505050506040513d601f19601f820116820180604052508101906122eb9190612cdf565b50505050565b6122f9612487565b73ffffffffffffffffffffffffffffffffffffffff16612317611008565b73ffffffffffffffffffffffffffffffffffffffff161461236d576040517f08c379a000000000000000000000000000000000000000000000000000000000815260040161236490612ea8565b60405180910390fd5b600073ffffffffffffffffffffffffffffffffffffffff168173ffffffffffffffffffffffffffffffffffffffff16036123dc576040517f08c379a00000000000000000000000000000000000000000000000000000000081526004016123d39061300c565b60405180910390fd5b6123e58161248f565b50565b34600360003373ffffffffffffffffffffffffffffffffffffffff1673ffffffffffffffffffffffffffffffffffffffff16815260200190815260200160002060007f4554480000000000000000000000000000000000000000000000000000000000815260200190815260200160002060008282546124689190612dbe565b92505081905550565b6000818361247f9190612c4a565b905092915050565b600033905090565b60008060009054906101000a900473ffffffffffffffffffffffffffffffffffffffff169050816000806101000a81548173ffffffffffffffffffffffffffffffffffffffff021916908373ffffffffffffffffffffffffffffffffffffffff1602179055508173ffffffffffffffffffffffffffffffffffffffff168173ffffffffffffffffffffffffffffffffffffffff167f8be0079c531659141344cd1fd0a4f28419497f9722a3daafe3b4186f6b6457e060405160405180910390a35050565b600080fd5b600073ffffffffffffffffffffffffffffffffffffffff82169050919050565b600061258382612558565b9050919050565b61259381612578565b811461259e57600080fd5b50565b6000813590506125b08161258a565b92915050565b6000819050919050565b6125c9816125b6565b81146125d457600080fd5b50565b6000813590506125e6816125c0565b92915050565b6000806040838503121561260357612602612553565b5b6000612611858286016125a1565b9250506020612622858286016125d7565b9150509250929050565b6000819050919050565b61263f8161262c565b82525050565b600060208201905061265a6000830184612636565b92915050565b6126698161262c565b811461267457600080fd5b50565b60008135905061268681612660565b92915050565b600080604083850312156126a3576126a2612553565b5b60006126b185828601612677565b92505060206126c2858286016125d7565b9150509250929050565b6000602082840312156126e2576126e1612553565b5b60006126f0848285016125d7565b91505092915050565b612702816125b6565b82525050565b61271181612578565b82525050565b600060408201905061272c60008301856126f9565b6127396020830184612708565b9392505050565b6002811061274d57600080fd5b50565b60008135905061275f81612740565b92915050565b6000806000806080858703121561277f5761277e612553565b5b600061278d87828801612750565b945050602061279e878288016125d7565b93505060406127af87828801612677565b92505060606127c087828801612677565b91505092959194509250565b60006020820190506127e16000830184612708565b92915050565b600080604083850312156127fe576127fd612553565b5b600061280c858286016125d7565b925050602061281d858286016125a1565b9150509250929050565b6000806000606084860312156128405761283f612553565b5b600061284e86828701612750565b935050602061285f868287016125d7565b925050604061287086828701612677565b9150509250925092565b6000602082840312156128905761288f612553565b5b600061289e84828501612677565b91505092915050565b60006020820190506128bc60008301846126f9565b92915050565b600080604083850312156128d9576128d8612553565b5b60006128e7858286016125d7565b92505060206128f885828601612750565b9150509250929050565b600081519050919050565b600082825260208201905092915050565b6000819050602082019050919050565b6129378161262c565b82525050565b61294681612578565b82525050565b7f4e487b7100000000000000000000000000000000000000000000000000000000600052602160045260246000fd5b6002811061298c5761298b61294c565b5b50565b600081905061299d8261297b565b919050565b60006129ad8261298f565b9050919050565b6129bd816129a2565b82525050565b6129cc816125b6565b82525050565b60e0820160008201516129e8600085018261292e565b5060208201516129fb602085018261293d565b506040820151612a0e60408501826129b4565b506060820151612a2160608501826129c3565b506080820151612a34608085018261292e565b5060a0820151612a4760a085018261292e565b5060c0820151612a5a60c085018261292e565b50505050565b6000612a6c83836129d2565b60e08301905092915050565b6000602082019050919050565b6000612a9082612902565b612a9a818561290d565b9350612aa58361291e565b8060005b83811015612ad6578151612abd8882612a60565b9750612ac883612a78565b925050600181019050612aa9565b5085935050505092915050565b60006020820190508181036000830152612afd8184612a85565b905092915050565b600060208284031215612b1b57612b1a612553565b5b6000612b29848285016125a1565b91505092915050565b600082825260208201905092915050565b7f746f6b656e20646f6573206e6f74206578697374000000000000000000000000600082015250565b6000612b79601483612b32565b9150612b8482612b43565b602082019050919050565b60006020820190508181036000830152612ba881612b6c565b9050919050565b7f42616c616e6365206e6f742073756666696369656e7400000000000000000000600082015250565b6000612be5601683612b32565b9150612bf082612baf565b602082019050919050565b60006020820190508181036000830152612c1481612bd8565b9050919050565b7f4e487b7100000000000000000000000000000000000000000000000000000000600052601160045260246000fd5b6000612c558261262c565b9150612c608361262c565b925082821015612c7357612c72612c1b565b5b828203905092915050565b6000604082019050612c936000830185612708565b612ca06020830184612636565b9392505050565b60008115159050919050565b612cbc81612ca7565b8114612cc757600080fd5b50565b600081519050612cd981612cb3565b92915050565b600060208284031215612cf557612cf4612553565b5b6000612d0384828501612cca565b91505092915050565b6000612d178261262c565b9150612d228361262c565b9250817fffffffffffffffffffffffffffffffffffffffffffffffffffffffffffffffff0483118215151615612d5b57612d5a612c1b565b5b828202905092915050565b7f4e487b7100000000000000000000000000000000000000000000000000000000600052603260045260246000fd5b6000612da08261262c565b915060008203612db357612db2612c1b565b5b600182039050919050565b6000612dc98261262c565b9150612dd48361262c565b9250827fffffffffffffffffffffffffffffffffffffffffffffffffffffffffffffffff03821115612e0957612e08612c1b565b5b828201905092915050565b6000612e1f8261262c565b91507fffffffffffffffffffffffffffffffffffffffffffffffffffffffffffffffff8203612e5157612e50612c1b565b5b600182019050919050565b7f4f776e61626c653a2063616c6c6572206973206e6f7420746865206f776e6572600082015250565b6000612e92602083612b32565b9150612e9d82612e5c565b602082019050919050565b60006020820190508181036000830152612ec181612e85565b9050919050565b7f496e73756666696369656e742062616c616e6365000000000000000000000000600082015250565b6000612efe601483612b32565b9150612f0982612ec8565b602082019050919050565b60006020820190508181036000830152612f2d81612ef1565b9050919050565b7f4e487b7100000000000000000000000000000000000000000000000000000000600052603160045260246000fd5b6000606082019050612f786000830186612708565b612f856020830185612708565b612f926040830184612636565b949350505050565b7f4f776e61626c653a206e6577206f776e657220697320746865207a65726f206160008201527f6464726573730000000000000000000000000000000000000000000000000000602082015250565b6000612ff6602683612b32565b915061300182612f9a565b604082019050919050565b6000602082019050818103600083015261302581612fe9565b905091905056fea26469706673582212203a987f9dcaea81ee4c7393937c1cb4fdc2bc52224cbfc21a522b7391a8d900a564736f6c634300080d0033",
  "immutableReferences": {},
  "source": "pragma solidity >=0.4.22 <0.9.0;\r\n\r\nimport \"./Wallet.sol\";\r\n\r\ncontract Dex is Wallet\r\n{\r\n    enum buyOrSell\r\n    {\r\n        BUY,\r\n        SELL\r\n    }\r\n\r\n    //Order struct for the order book.\r\n    struct Order\r\n    {\r\n        uint256 id;\r\n        address trader;\r\n        buyOrSell buyOrSell;\r\n        bytes32 ticker;\r\n        uint amount;\r\n        uint price;\r\n        uint filled;\r\n    }\r\n\r\n    //Order book split into 2:\r\n    //1. We have the bids and the asks.\r\n    //2. One order book for each asset.\r\n    //The below mapping points from an asset to another mapping of uint, which represets\r\n    //the enum (BUY/SELL), this points to a list of orders.\r\n    //Now we have one order book for buy and one order book for sell for each asset.\r\n    mapping(bytes32 => mapping(uint => Order[])) orderBook;\r\n\r\n    uint public nextOrderId = 0;\r\n\r\n    function getOrderBook(bytes32 ticker, buyOrSell buySell) view public returns(Order[] memory)\r\n    {\r\n        return orderBook[ticker][uint(buySell)];\r\n    }\r\n\r\n    //Adding orders into order book.\r\n    function createLimitOrder(buyOrSell buySell, bytes32 ticker, uint amount, uint price) public\r\n    {\r\n        if(buySell == buyOrSell.BUY)\r\n        {\r\n            require(balances[msg.sender][\"ETH\"] >= amount * price);\r\n\r\n        }\r\n        else if(buySell == buyOrSell.SELL)\r\n        {\r\n            require(balances[msg.sender][ticker] >= amount);\r\n        }\r\n\r\n        Order[] storage orders = orderBook[ticker][uint(buySell)];\r\n        orders.push(Order(nextOrderId, msg.sender, buySell, ticker, amount, price, 0));\r\n\r\n        if(orders.length > 0)\r\n        {\r\n            //Bubble sort.\r\n            //Sort BUY side.\r\n            if(buySell == buyOrSell.BUY)\r\n            {\r\n                for(uint i = orders.length - 1; i > 0; i--)\r\n                {\r\n                    if(orders[i].price > orders[i-1].price)\r\n                    {\r\n                        Order storage temp = orders[i];\r\n                        orders[i] = orders[i-1];\r\n                        orders[i-1] = temp;\r\n                    }\r\n                    else\r\n                        break;\r\n                }\r\n            }\r\n            //Sort SELL side.\r\n            else if(buySell == buyOrSell.SELL)\r\n            {\r\n                for(uint i = 0; i < orders.length-1; i++)\r\n                {\r\n                    if(orders[i].price > orders[i+1].price)\r\n                    {\r\n                        Order storage temp = orders[i];\r\n                        orders[i] = orders[i+1];\r\n                        orders[i+1] = temp;\r\n                    }\r\n                    else\r\n                        break;\r\n                }\r\n            }\r\n        }\r\n        nextOrderId++;\r\n    }\r\n\r\n    function createMarketOrder(buyOrSell buySell, bytes32 ticker, uint amount) public\r\n    {\r\n        if(buySell == buyOrSell.SELL)\r\n            require(balances[msg.sender][ticker] >= amount, \"Insufficient balance\");\r\n        uint orderBookBuySell;\r\n\r\n        if(buySell == buyOrSell.BUY)\r\n        {\r\n            orderBookBuySell = 1;\r\n        }\r\n        else\r\n        {\r\n            orderBookBuySell = 0;\r\n        }\r\n\r\n        Order[] storage orders = orderBook[ticker][orderBookBuySell];\r\n        \r\n\r\n        ///////////////////How much we can fill from order[i]\r\n        ///////////////////Update totalFilled.\r\n\r\n        //How much have we filled of the market order.\r\n        uint totalFilled;\r\n\r\n        //totalFilled < amount, means if we've filled the order book.\r\n        for(uint i = 0; i < orders.length && totalFilled < amount; i++)\r\n        {\r\n            uint leftToFill = amount - totalFilled;\r\n            uint availableToFill = orders[i].amount - orders[i].filled;\r\n            uint filled = 0;\r\n            if(availableToFill > leftToFill)\r\n            {\r\n                //Fill the entire market order.\r\n                filled = leftToFill;\r\n            }\r\n            else\r\n            {\r\n                //Fill as much as is available in order[i]\r\n                filled = availableToFill;\r\n            }\r\n\r\n            totalFilled = totalFilled + filled;\r\n            orders[i].filled = orders[i].filled + filled;\r\n            uint cost = filled * orders[i].price;\r\n\r\n            //Execute the trade and shift balances between buyer/seller.\r\n            if(buySell == buyOrSell.BUY)\r\n            {\r\n                //Verify that the market order trader has enough ETH to cover.\r\n                require(balances[msg.sender][\"ETH\"] >= cost);\r\n                \r\n                //msg.sender is the buyer.\r\n                //Transfer ETH from buyer to seller.\r\n                //Transfer tokens from seller to buyer.\r\n                balances[msg.sender][ticker] = (balances[msg.sender][ticker] - filled);\r\n                balances[msg.sender][\"ETH\"] = (balances[msg.sender][\"ETH\"] + cost);\r\n\r\n                balances[orders[i].trader][ticker] = (balances[orders[i].trader][ticker] - filled);\r\n                balances[orders[i].trader][\"ETH\"] = (balances[orders[i].trader][\"ETH\"] + cost);\r\n            }\r\n            else if(buySell == buyOrSell.SELL)\r\n            {\r\n                //msg.sender is the seller.\r\n                balances[msg.sender][ticker] = (balances[msg.sender][ticker] + filled);\r\n                balances[msg.sender][\"ETH\"] = (balances[msg.sender][\"ETH\"] - cost);\r\n\r\n                balances[orders[i].trader][ticker] = (balances[orders[i].trader][ticker] - filled);\r\n                balances[orders[i].trader][\"ETH\"] = (balances[orders[i].trader][\"ETH\"] + cost);\r\n            }\r\n        }\r\n\r\n        //Loop through the orderbook and remove 100% filled orders from the order book.\r\n        while(orders.length > 0 && orders[0].filled == orders[0].amount)\r\n        {\r\n            //Remove top element in the top orders array by overwritting every\r\n            //element with the next element in the order list.\r\n            for(uint256 i = 0; i < orders.length - 1; i++)\r\n            {\r\n                orders[i] = orders[i + 1];\r\n            }\r\n            orders.pop();\r\n        }\r\n    }\r\n}\r\n",
  "sourcePath": "E:\\Moralis academy\\Ethereum Smart Contract Programming 201 (advanced)\\Dex project\\contracts\\Dex.sol",
  "compiler": {
    "name": "solc",
    "version": "0.8.13+commit.abaa5c0e.Emscripten.clang"
  },
  "schemaVersion": "3.4.7",
  "updatedAt": "2022-07-06T17:32:59.471Z",
  "devdoc": {
    "kind": "dev",
    "methods": {
      "owner()": {
        "details": "Returns the address of the current owner."
      },
      "renounceOwnership()": {
        "details": "Leaves the contract without owner. It will not be possible to call `onlyOwner` functions anymore. Can only be called by the current owner. NOTE: Renouncing ownership will leave the contract without an owner, thereby removing any functionality that is only available to the owner."
      },
      "transferOwnership(address)": {
        "details": "Transfers ownership of the contract to a new account (`newOwner`). Can only be called by the current owner."
      }
    },
    "version": 1
  },
  "userdoc": {
    "kind": "user",
    "methods": {},
    "version": 1
  }
}