{
  "contractName": "Wallet",
  "abi": [
    {
      "anonymous": false,
      "inputs": [
        {
          "indexed": true,
          "internalType": "address",
          "name": "previousOwner",
          "type": "address"
        },
        {
          "indexed": true,
          "internalType": "address",
          "name": "newOwner",
          "type": "address"
        }
      ],
      "name": "OwnershipTransferred",
      "type": "event"
    },
    {
      "inputs": [
        {
          "internalType": "address",
          "name": "",
          "type": "address"
        },
        {
          "internalType": "bytes32",
          "name": "",
          "type": "bytes32"
        }
      ],
      "name": "balances",
      "outputs": [
        {
          "internalType": "uint256",
          "name": "",
          "type": "uint256"
        }
      ],
      "stateMutability": "view",
      "type": "function"
    },
    {
      "inputs": [],
      "name": "owner",
      "outputs": [
        {
          "internalType": "address",
          "name": "",
          "type": "address"
        }
      ],
      "stateMutability": "view",
      "type": "function"
    },
    {
      "inputs": [],
      "name": "renounceOwnership",
      "outputs": [],
      "stateMutability": "nonpayable",
      "type": "function"
    },
    {
      "inputs": [
        {
          "internalType": "uint256",
          "name": "",
          "type": "uint256"
        }
      ],
      "name": "tokenList",
      "outputs": [
        {
          "internalType": "bytes32",
          "name": "",
          "type": "bytes32"
        }
      ],
      "stateMutability": "view",
      "type": "function"
    },
    {
      "inputs": [
        {
          "internalType": "bytes32",
          "name": "",
          "type": "bytes32"
        }
      ],
      "name": "tokenMapping",
      "outputs": [
        {
          "internalType": "bytes32",
          "name": "ticker",
          "type": "bytes32"
        },
        {
          "internalType": "address",
          "name": "tokenAddress",
          "type": "address"
        }
      ],
      "stateMutability": "view",
      "type": "function"
    },
    {
      "inputs": [
        {
          "internalType": "address",
          "name": "newOwner",
          "type": "address"
        }
      ],
      "name": "transferOwnership",
      "outputs": [],
      "stateMutability": "nonpayable",
      "type": "function"
    },
    {
      "inputs": [
        {
          "internalType": "bytes32",
          "name": "ticker",
          "type": "bytes32"
        },
        {
          "internalType": "address",
          "name": "tokenAddress",
          "type": "address"
        }
      ],
      "name": "addToken",
      "outputs": [],
      "stateMutability": "nonpayable",
      "type": "function"
    },
    {
      "inputs": [
        {
          "internalType": "uint256",
          "name": "amount",
          "type": "uint256"
        },
        {
          "internalType": "bytes32",
          "name": "ticker",
          "type": "bytes32"
        }
      ],
      "name": "deposit",
      "outputs": [],
      "stateMutability": "nonpayable",
      "type": "function"
    },
    {
      "inputs": [],
      "name": "depositETH",
      "outputs": [],
      "stateMutability": "payable",
      "type": "function"
    },
    {
      "inputs": [
        {
          "internalType": "uint256",
          "name": "amount",
          "type": "uint256"
        },
        {
          "internalType": "bytes32",
          "name": "ticker",
          "type": "bytes32"
        }
      ],
      "name": "withdrawal",
      "outputs": [],
      "stateMutability": "nonpayable",
      "type": "function"
    }
  ],
  "bytecode": "0x608060405234801561001057600080fd5b5061002d61002261003260201b60201c565b61003a60201b60201c565b6100fe565b600033905090565b60008060009054906101000a900473ffffffffffffffffffffffffffffffffffffffff169050816000806101000a81548173ffffffffffffffffffffffffffffffffffffffff021916908373ffffffffffffffffffffffffffffffffffffffff1602179055508173ffffffffffffffffffffffffffffffffffffffff168173ffffffffffffffffffffffffffffffffffffffff167f8be0079c531659141344cd1fd0a4f28419497f9722a3daafe3b4186f6b6457e060405160405180910390a35050565b6111f68061010d6000396000f3fe6080604052600436106100915760003560e01c80639776aacf116100595780639776aacf1461017c5780639ead7222146101a5578063c9630cb0146101e2578063f2fde38b1461020b578063f6326fb31461023457610091565b80631f14df691461009657806341fe8d10146100d3578063667cb4ba146100fc578063715018a61461013a5780638da5cb5b14610151575b600080fd5b3480156100a257600080fd5b506100bd60048036038101906100b89190610c37565b61023e565b6040516100ca9190610c90565b60405180910390f35b3480156100df57600080fd5b506100fa60048036038101906100f59190610cd7565b610263565b005b34801561010857600080fd5b50610123600480360381019061011e9190610d17565b61051f565b604051610131929190610d62565b60405180910390f35b34801561014657600080fd5b5061014f610563565b005b34801561015d57600080fd5b506101666105eb565b6040516101739190610d8b565b60405180910390f35b34801561018857600080fd5b506101a3600480360381019061019e9190610da6565b610614565b005b3480156101b157600080fd5b506101cc60048036038101906101c79190610de6565b61074f565b6040516101d99190610e13565b60405180910390f35b3480156101ee57600080fd5b5061020960048036038101906102049190610cd7565b610773565b005b34801561021757600080fd5b50610232600480360381019061022d9190610e2e565b61093c565b005b61023c610a33565b005b6003602052816000526040600020602052806000526040600020600091509150505481565b80600073ffffffffffffffffffffffffffffffffffffffff166001600083815260200190815260200160002060010160009054906101000a900473ffffffffffffffffffffffffffffffffffffffff1673ffffffffffffffffffffffffffffffffffffffff1603610309576040517f08c379a000000000000000000000000000000000000000000000000000000000815260040161030090610eb8565b60405180910390fd5b82600360003373ffffffffffffffffffffffffffffffffffffffff1673ffffffffffffffffffffffffffffffffffffffff168152602001908152602001600020600084815260200190815260200160002054101561039c576040517f08c379a000000000000000000000000000000000000000000000000000000000815260040161039390610f24565b60405180910390fd5b6103ff83600360003373ffffffffffffffffffffffffffffffffffffffff1673ffffffffffffffffffffffffffffffffffffffff168152602001908152602001600020600085815260200190815260200160002054610abc90919063ffffffff16565b600360003373ffffffffffffffffffffffffffffffffffffffff1673ffffffffffffffffffffffffffffffffffffffff1681526020019081526020016000206000848152602001908152602001600020600082825461045e9190610f73565b925050819055506001600083815260200190815260200160002060010160009054906101000a900473ffffffffffffffffffffffffffffffffffffffff1673ffffffffffffffffffffffffffffffffffffffff1663a9059cbb33856040518363ffffffff1660e01b81526004016104d6929190610fa7565b6020604051808303816000875af11580156104f5573d6000803e3d6000fd5b505050506040513d601f19601f820116820180604052508101906105199190611008565b50505050565b60016020528060005260406000206000915090508060000154908060010160009054906101000a900473ffffffffffffffffffffffffffffffffffffffff16905082565b61056b610ad2565b73ffffffffffffffffffffffffffffffffffffffff166105896105eb565b73ffffffffffffffffffffffffffffffffffffffff16146105df576040517f08c379a00000000000000000000000000000000000000000000000000000000081526004016105d690611081565b60405180910390fd5b6105e96000610ada565b565b60008060009054906101000a900473ffffffffffffffffffffffffffffffffffffffff16905090565b61061c610ad2565b73ffffffffffffffffffffffffffffffffffffffff1661063a6105eb565b73ffffffffffffffffffffffffffffffffffffffff1614610690576040517f08c379a000000000000000000000000000000000000000000000000000000000815260040161068790611081565b60405180910390fd5b60405180604001604052808381526020018273ffffffffffffffffffffffffffffffffffffffff16815250600160008481526020019081526020016000206000820151816000015560208201518160010160006101000a81548173ffffffffffffffffffffffffffffffffffffffff021916908373ffffffffffffffffffffffffffffffffffffffff16021790555090505060028290806001815401808255809150506001900390600052602060002001600090919091909150555050565b6002818154811061075f57600080fd5b906000526020600020016000915090505481565b80600073ffffffffffffffffffffffffffffffffffffffff166001600083815260200190815260200160002060010160009054906101000a900473ffffffffffffffffffffffffffffffffffffffff1673ffffffffffffffffffffffffffffffffffffffff1603610819576040517f08c379a000000000000000000000000000000000000000000000000000000000815260040161081090610eb8565b60405180910390fd5b82600360003373ffffffffffffffffffffffffffffffffffffffff1673ffffffffffffffffffffffffffffffffffffffff1681526020019081526020016000206000848152602001908152602001600020600082825461087991906110a1565b925050819055506001600083815260200190815260200160002060010160009054906101000a900473ffffffffffffffffffffffffffffffffffffffff1673ffffffffffffffffffffffffffffffffffffffff166323b872dd3330866040518463ffffffff1660e01b81526004016108f3939291906110f7565b6020604051808303816000875af1158015610912573d6000803e3d6000fd5b505050506040513d601f19601f820116820180604052508101906109369190611008565b50505050565b610944610ad2565b73ffffffffffffffffffffffffffffffffffffffff166109626105eb565b73ffffffffffffffffffffffffffffffffffffffff16146109b8576040517f08c379a00000000000000000000000000000000000000000000000000000000081526004016109af90611081565b60405180910390fd5b600073ffffffffffffffffffffffffffffffffffffffff168173ffffffffffffffffffffffffffffffffffffffff1603610a27576040517f08c379a0000000000000000000000000000000000000000000000000000000008152600401610a1e906111a0565b60405180910390fd5b610a3081610ada565b50565b34600360003373ffffffffffffffffffffffffffffffffffffffff1673ffffffffffffffffffffffffffffffffffffffff16815260200190815260200160002060007f455448000000000000000000000000000000000000000000000000000000000081526020019081526020016000206000828254610ab391906110a1565b92505081905550565b60008183610aca9190610f73565b905092915050565b600033905090565b60008060009054906101000a900473ffffffffffffffffffffffffffffffffffffffff169050816000806101000a81548173ffffffffffffffffffffffffffffffffffffffff021916908373ffffffffffffffffffffffffffffffffffffffff1602179055508173ffffffffffffffffffffffffffffffffffffffff168173ffffffffffffffffffffffffffffffffffffffff167f8be0079c531659141344cd1fd0a4f28419497f9722a3daafe3b4186f6b6457e060405160405180910390a35050565b600080fd5b600073ffffffffffffffffffffffffffffffffffffffff82169050919050565b6000610bce82610ba3565b9050919050565b610bde81610bc3565b8114610be957600080fd5b50565b600081359050610bfb81610bd5565b92915050565b6000819050919050565b610c1481610c01565b8114610c1f57600080fd5b50565b600081359050610c3181610c0b565b92915050565b60008060408385031215610c4e57610c4d610b9e565b5b6000610c5c85828601610bec565b9250506020610c6d85828601610c22565b9150509250929050565b6000819050919050565b610c8a81610c77565b82525050565b6000602082019050610ca56000830184610c81565b92915050565b610cb481610c77565b8114610cbf57600080fd5b50565b600081359050610cd181610cab565b92915050565b60008060408385031215610cee57610ced610b9e565b5b6000610cfc85828601610cc2565b9250506020610d0d85828601610c22565b9150509250929050565b600060208284031215610d2d57610d2c610b9e565b5b6000610d3b84828501610c22565b91505092915050565b610d4d81610c01565b82525050565b610d5c81610bc3565b82525050565b6000604082019050610d776000830185610d44565b610d846020830184610d53565b9392505050565b6000602082019050610da06000830184610d53565b92915050565b60008060408385031215610dbd57610dbc610b9e565b5b6000610dcb85828601610c22565b9250506020610ddc85828601610bec565b9150509250929050565b600060208284031215610dfc57610dfb610b9e565b5b6000610e0a84828501610cc2565b91505092915050565b6000602082019050610e286000830184610d44565b92915050565b600060208284031215610e4457610e43610b9e565b5b6000610e5284828501610bec565b91505092915050565b600082825260208201905092915050565b7f746f6b656e20646f6573206e6f74206578697374000000000000000000000000600082015250565b6000610ea2601483610e5b565b9150610ead82610e6c565b602082019050919050565b60006020820190508181036000830152610ed181610e95565b9050919050565b7f42616c616e6365206e6f742073756666696369656e7400000000000000000000600082015250565b6000610f0e601683610e5b565b9150610f1982610ed8565b602082019050919050565b60006020820190508181036000830152610f3d81610f01565b9050919050565b7f4e487b7100000000000000000000000000000000000000000000000000000000600052601160045260246000fd5b6000610f7e82610c77565b9150610f8983610c77565b925082821015610f9c57610f9b610f44565b5b828203905092915050565b6000604082019050610fbc6000830185610d53565b610fc96020830184610c81565b9392505050565b60008115159050919050565b610fe581610fd0565b8114610ff057600080fd5b50565b60008151905061100281610fdc565b92915050565b60006020828403121561101e5761101d610b9e565b5b600061102c84828501610ff3565b91505092915050565b7f4f776e61626c653a2063616c6c6572206973206e6f7420746865206f776e6572600082015250565b600061106b602083610e5b565b915061107682611035565b602082019050919050565b6000602082019050818103600083015261109a8161105e565b9050919050565b60006110ac82610c77565b91506110b783610c77565b9250827fffffffffffffffffffffffffffffffffffffffffffffffffffffffffffffffff038211156110ec576110eb610f44565b5b828201905092915050565b600060608201905061110c6000830186610d53565b6111196020830185610d53565b6111266040830184610c81565b949350505050565b7f4f776e61626c653a206e6577206f776e657220697320746865207a65726f206160008201527f6464726573730000000000000000000000000000000000000000000000000000602082015250565b600061118a602683610e5b565b91506111958261112e565b604082019050919050565b600060208201905081810360008301526111b98161117d565b905091905056fea2646970667358221220536f52ae6a90de64e5f28b448b52b4912e91326c82973ff854612ccaa35c058a64736f6c634300080d0033",
  "immutableReferences": {},
  "source": "pragma solidity >=0.4.22 <0.9.0;\r\n\r\nimport \"../node_modules/@openzeppelin/contracts/token/ERC20/IERC20.sol\";\r\nimport \"../node_modules/@openzeppelin/contracts/utils/Math/SafeMath.sol\";\r\nimport \"../node_modules/@openzeppelin/contracts/access/Ownable.sol\";\r\n\r\ncontract Wallet is Ownable {\r\n \r\n    using SafeMath for uint256;\r\n    \r\n    //Store information about tokens.\r\n    //In order for this DEX to trade tokens it needs to have support for the token,\r\n    //so we save the address of the token.\r\n    struct Token {\r\n        bytes32 ticker;\r\n        address tokenAddress;\r\n    }\r\n    \r\n    //Id points to the spcific token.\r\n    mapping(bytes32 => Token) public tokenMapping;\r\n\r\n    //Ids of the tokens.\r\n    bytes32[] public tokenList;\r\n\r\n    modifier tokenExist(bytes32 ticker)\r\n    {\r\n        //Check if token exists.\r\n        require(tokenMapping[ticker].tokenAddress != address(0), \"token does not exist\");\r\n        _;\r\n    }\r\n\r\n    //Keep track of multiple balanaces.\r\n    mapping(address => mapping(bytes32 => uint256)) public balances;\r\n\r\n    //Take information about our token and add it to the storage (ticker).\r\n    function addToken(bytes32 ticker, address tokenAddress) onlyOwner external\r\n    {\r\n        tokenMapping[ticker] = Token(ticker, tokenAddress);\r\n        tokenList.push(ticker);\r\n    }\r\n\r\n    function deposit(uint amount, bytes32 ticker) tokenExist(ticker) external \r\n    {   \r\n        balances[msg.sender][ticker] += amount;   \r\n        IERC20(tokenMapping[ticker].tokenAddress).transferFrom(msg.sender, address(this), amount);\r\n    }\r\n\r\n    function depositETH() payable external\r\n    {\r\n        balances[msg.sender][bytes32(\"ETH\")] += msg.value;\r\n    }\r\n  \r\n    function withdrawal(uint amount, bytes32 ticker) tokenExist(ticker) external \r\n    {      \r\n        require(balances[msg.sender][ticker] >= amount, \"Balance not sufficient\");       \r\n\r\n        balances[msg.sender][ticker] -= balances[msg.sender][ticker].sub(amount);\r\n        IERC20(tokenMapping[ticker].tokenAddress).transfer(msg.sender, amount);\r\n    }\r\n}",
  "sourcePath": "E:\\Moralis academy\\Ethereum Smart Contract Programming 201 (advanced)\\Dex project\\contracts\\Wallet.sol",
  "compiler": {
    "name": "solc",
    "version": "0.8.13+commit.abaa5c0e.Emscripten.clang"
  },
  "schemaVersion": "3.4.7",
  "updatedAt": "2022-07-06T17:33:00.511Z",
  "devdoc": {
    "kind": "dev",
    "methods": {
      "owner()": {
        "details": "Returns the address of the current owner."
      },
      "renounceOwnership()": {
        "details": "Leaves the contract without owner. It will not be possible to call `onlyOwner` functions anymore. Can only be called by the current owner. NOTE: Renouncing ownership will leave the contract without an owner, thereby removing any functionality that is only available to the owner."
      },
      "transferOwnership(address)": {
        "details": "Transfers ownership of the contract to a new account (`newOwner`). Can only be called by the current owner."
      }
    },
    "version": 1
  },
  "userdoc": {
    "kind": "user",
    "methods": {},
    "version": 1
  }
}